:020000040800F2
:1000000000040020C9020008CB020008CB0200084F
:10001000CB020008CB020008CB020008CB0200088C
:10002000CB020008CB020008CB020008F1830008D5
:10003000CB020008CB020008CB020008CB0200086C
:10004000CB020008CB020008CB020008CB0200085C
:10005000CB020008CB020008CB020008CB0200084C
:10006000CB020008CB020008CB020008A13A00082E
:10007000013B0008613B0008C13B0008213C00082F
:10008000813C0008E13C0008CB020008CB020008DC
:10009000CB020008CB020008CB020008CB0200080C
:1000A000CB020008B1590008CB020008E159000852
:1000B000E1580008CB020008CB020008CB02000880
:1000C000CB020008CB020008CB020008CB020008DC
:1000D000CB020008CB020008A15D0008CB0200089B
:1000E000CB020008CB020008CB020008CB020008BC
:1000F000CB020008CB020008CB020008413D0008FB
:10010000CB020008CB020008CB020008CB0200089B
:10011000CB020008CB020008CB020008CB0200088B
:10012000A13D0008013E0008613E0008C13E0008F4
:10013000213F0008CB020008CB020008CB020008D8
:10014000CB020008CB020008CB020008E14D0008FA
:10015000813F0008E13F000841400008CB02000851
:10016000CB020008CB020008CB020008CB0200083B
:10017000CB020008114E0008CB020008CB02000899
:10018000CB020008CB020008CB020008CB0200081B
:10019000CB020008CB020008CB020008CB0200080B
:1001A000CB020008CB020008CB020008CB020008FB
:1001B000CB020008CB020008CB020008CB020008EB
:1001C000CB020008CB020008CB020008CB020008DB
:1001D000CB020008CB020008CB020008CB020008CB
:0401E000010D000805
:1001F00072B6274880F30888264880F30988264885
:100200004EF60851CEF200010860022080F31488F7
:10021000BFF36F8F00F07CFD05F082FE4FF055308C
:100220001E491B4A91423CBF41F8040BFAE71C49A6
:10023000184A91423CBF41F8040BFAE719491A4A9F
:100240001A4B9A423EBF51F8040B42F8040BF8E7F0
:1002500000201749174A91423CBF41F8040BFAE7C6
:1002600000F06EFD00F05CFD134C144DAC4203DA5F
:1002700054F8041B8847F9E700F0BAFC104C114D04
:10028000AC4203DA54F8041B8847F9E700F050BD8C
:1002900000040020000800200000000800000020EA
:1002A00000040020E0990008000800200808002051
:1002B0000808002060250020E0010008E401000893
:1002C000E4010008E401000892E700F000F8FEE70E
:1002D0002DE9F04FC1F80CD0C3689D46BDE8F08F02
:1002E00006F0BEF8002383F311882846A0470020BB
:1002F00007F0C6F906F09CF806F0F2FE06F0B0F83A
:1003000000DFFEE7844641EA000313F003036DD1EA
:10031000403A41D351F8043B40F8043B51F8043BC8
:1003200040F8043B51F8043B40F8043B51F8043BCF
:1003300040F8043B51F8043B40F8043B51F8043BBF
:1003400040F8043B51F8043B40F8043B51F8043BAF
:1003500040F8043B51F8043B40F8043B51F8043B9F
:1003600040F8043B51F8043B40F8043B51F8043B8F
:1003700040F8043B51F8043B40F8043B51F8043B7F
:1003800040F8043B51F8043B40F8043B51F8043B6F
:1003900040F8043B403ABDD2303211D351F8043B0F
:1003A00040F8043B51F8043B40F8043B51F8043B4F
:1003B00040F8043B51F8043B40F8043B103AEDD2BE
:1003C0000C3205D351F8043B40F8043B043AF9D20F
:1003D000043208D0D2071CBF11F8013B00F8013BE2
:1003E00001D30B8803806046704700BF082A13D3EF
:1003F0008B078DD010F003038AD0C3F10403D21A07
:10040000DB071CBF11F8013B00F8013B80D331F83A
:10041000023B20F8023B7BE7043AD9D3013A11F8BA
:10042000013B00F8013BF9D20B7803704B78437025
:100430008B7883706046704753B94AB9002908BF6A
:1004400000281CBF4FF0FF314FF0FF3000F072B9B1
:10045000ADF1080C6DE904CE00F006F8DDF804E01B
:10046000DDE9022304B070472DE9F047089E0446F9
:100470008846002B4BD18A42154667D9B2FA82F2E0
:100480004AB1C2F1200701FA02F320FA07F79540BA
:1004900047EA030894404FEA154E230CB8FBFEF7D9
:1004A0001FFA85FC0EFB178843EA084307FB0CF193
:1004B000994209D9EB1807F1FF3080F01B8199426E
:1004C00040F21881023F2B445B1AA4B2B3FBFEF04A
:1004D0000EFB103344EA034400FB0CFCA44509D98D
:1004E0002C1900F1FF3380F00781A44540F204810C
:1004F00002382C4440EA0740A4EB0C0400271EB14C
:10050000D4400023C6E900433946BDE8F0878B425A
:1005100009D9002E00F0EB800027C6E9000138461B
:100520003946BDE8F087B3FA83F7002F47D18B42F5
:1005300002D3824200F2FA80841A61EB03030120A5
:100540009846002EE0D0C6E90048DDE702B9FFDE9C
:10055000B2FA82F2002A40F08F80491B4FEA154E12
:100560001FFA85F80127B1FBFEFC230C0EFB1C11C2
:1005700043EA014308FB0CF1994207D9EB180CF14F
:10058000FF3002D2994200F2CD808446591AA3B2BC
:10059000B1FBFEF00EFB101443EA044408FB00F824
:1005A000A04507D92C1900F1FF3302D2A04500F273
:1005B000B6801846A4EB080440EA0C409FE7C7F158
:1005C000200CBB4022FA0CFE4EEA030E01FA07F49F
:1005D00020FA0CF521FA0CF34FEA1E482543B3FB31
:1005E000F8F92C0C08FB19331FFA8EFA44EA03437E
:1005F00009FB0AF49C4202FA07F200FA07F10BD950
:100600001EEB030309F1FF3080F087809C4240F22B
:100610008480A9F1020973441B1BADB2B3FBF8F04F
:1006200008FB103345EA034400FB0AFAA24508D947
:100630001EEB040400F1FF336BD2A24569D90238E6
:10064000744440EA0940A0FB0289A4EB0A044C452B
:10065000C2464B4654D351D0002E69D0B1EB0A05A7
:1006600064EB030404FA0CFCFD40FC404CEA050575
:10067000C6E90054002747E7C2F1200320FA03F738
:10068000954001FA02F021FA03F34FEA154E384380
:10069000010CB3FBFEF71FFA85F80EFB173341EA96
:1006A000034107FB08F38B4204FA02F407D96918E7
:1006B00007F1FF3C2FD28B422DD9023F2944CB1AA0
:1006C00081B2B3FBFEF00EFB103341EA034100FBA5
:1006D00008F38B4207D9691800F1FF3C17D28B420F
:1006E00015D902382944C91A40EA07473BE737467B
:1006F000304609E70746E7E61846FBE64145ABD238
:10070000B8EB020A69EB0E0201381346A4E7604613
:10071000E9E7184695E76746D1E781467CE7023866
:100720002C4447E7ACF1020C2B442FE7384608E78E
:100730003746E9E6704700BF0000000000000000F7
:1007400082B001900423019302B0704700000000C2
:1007500082B020230193019B83F3118802B070477C
:1007600082B000230193019B83F3118802B070478C
:1007700008B5FFF7EDFF08BD000000000000000015
:1007800008B5FFF7EDFF08BD000000000000000005
:1007900008B5FFF7EDFF05F07BFE08BD0000000087
:1007A00008B505F08DFEFFF7EBFF08BD0000000067
:1007B00008B5FFF7EDFF08BD0000000000000000D5
:1007C00008B5FFF7EDFF08BD0000000000000000C5
:1007D00082B00190084611461A4603468DF8033050
:1007E0000B468DF802301346ADF800309DF803300B
:1007F000022B05D0032B05D0012B0DD1084B0CE0AB
:10080000084B0AE09DF80230032B05D89DF8023012
:10081000DB00054A134400E00023184602B070478D
:100820000898000854980008C898000800000000C4
:1008300000B583B001900B468DF803309DF803306E
:10084000062B22D801A252F823F000BF8B08000823
:100850008B080008690800088B0800088B0800084E
:100860008B0800088B080008FFF792FF084A012157
:10087000019802F03DFC074A0221019802F038FC81
:10088000054801F09DFFFFF78BFF03B05DF804FB07
:10089000E89800080C9900082C14002000000000C3
:1008A00000B583B00190FFF783FF044801F0E8FF33
:1008B000FFF786FF03B05DF804FB00BF2C14002097
:1008C00008B5114801F0F4FE10490F4801F030FF5F
:1008D0000F4BDB6E9A6B0E4BDB6E22F400229A6399
:1008E00043F6982006F01CFF094B0A49184602F00F
:1008F000BFFB074BDB6E9A6B054BDB6E42F40022AD
:100900009A630123184608BD2C1400204099000862
:100910008C08002030990008000000000000000052
:1009200000B583B001900B468DF80330019B204A3F
:10093000013311467F221846FFF7E4FC019B1D4A54
:10094000803311467F221846FFF7DCFC019B002212
:100950001A70019B0022C3F80421019B0022C3F8F6
:100960000021019B002283F80821019B9DF80320B0
:1009700083F80921019B0022C3F81021019B00226A
:10098000C3F81421019B0A2283F80D21019B002248
:1009900083F80A21019B002283F80B21019B01228D
:1009A00083F80C21019B184603B05DF804FB00BFDF
:1009B0001C8500089C850008000000000000000065
:1009C00082B00190024B9B69019A9A6102B0704714
:1009D000380B0020000000000000000000000000B4
:1009E00008B505F06DFC08BD000000000000000027
:1009F00000B583B00190019806F092FE03B05DF857
:100A000004FB00BF00000000000000000000000028
:100A100000B583B001900448FFF7D2FF42F2107096
:100A200006F07EFEFAE700BF4899000800000000CB
:100A300070B584B001905948FFF7C2FF4FF4FA73C4
:100A40000393574B1B681B78042B01D1FA2301E059
:100A50004FF47A730393534B4FF400525A83039B22
:100A60001D464FF000062B4634464FF000014FF074
:100A70000002A20042EA937299000B4614465B19E9
:100A800044EB06044FF000014FF00002E20042EA9E
:100A90005372D9000B4614465B1B64EB06044FF0FF
:100AA00000014FF00002220142EA137219010B46C5
:100AB00014465B1944EB06044FF000014FF00002AE
:100AC000220142EA137219010B46144619462246C6
:100AD00040F2E7334FF00004CD1842EB04062846FD
:100AE00031464FF47A724FF00003FFF7A5FC03463E
:100AF0000C46184606F014FE2A4B4FF400521A8397
:100B0000039B1D464FF000062B4634464FF0000174
:100B10004FF00002A20042EA937299000B4614467D
:100B20005B1944EB06044FF000014FF00002E200B5
:100B300042EA5372D9000B4614465B1B64EB060471
:100B40004FF000014FF00002220142EA1372190136
:100B50000B4614465B1944EB06044FF000014FF0BE
:100B60000002220142EA137219010B46144619468B
:100B7000224640F2E7334FF00004CD1842EB040662
:100B8000284631464FF47A724FF00003FFF754FCC9
:100B900003460C46184606F0C3FD4FE75899000877
:100BA00040990008000C0240000000000000000016
:100BB00000B583B001900A48FFF702FF094B4FF4DC
:100BC00080521A834FF47A7006F0AAFD054B4FF459
:100BD00080525A8342F2283006F0A2FDEEE700BFB1
:100BE00064990008000C02400000000000000000B2
:100BF00000B587B000F0E4F8FFF7F2FE19221021EB
:100C0000264803F08DFA19222021244803F088FA9F
:100C100082224FF48071224803F082FA40F20A5295
:100C20004FF400611E4803F07BFA40F20A524FF481
:100C300080511B4803F074FAFFF742FE0420FFF7CF
:100C40007FFD00230093174B80224FF4A4711648B8
:100C500006F05EFC00230093144B022240F6C8010C
:100C6000134806F055FC00230093124B80224FF4EA
:100C7000A471114806F04CFC104A03AB07CA03C329
:100C80001A800F4B1B685B6803A90A220C4898471F
:100C90004CF25030FFF7ACFEEEE700BF0008024018
:100CA00000000240310A0008D0220020110A00088A
:100CB000081A0020B10B0008182400206C990008C5
:100CC0002C140020000000000000000000000000C4
:100CD00000B583B001900091019B012B08D1009BCE
:100CE0004FF6FF72934203D107210348FFF718FE26
:100CF00003B05DF804FB00BFEC180020000000000A
:100D000008B54FF6FF710120FFF7E2FF08BD00BFF5
:100D1000704700BF0000000000000000000000005D
:100D2000704700BF0000000000000000000000004D
:100D3000FEE700BF0000000000000000000000000F
:100D400084B0164B0393039B1B680293039B5B6861
:100D5000019309E0029B1A68019B1A60019B04330E
:100D60000193029B04330293039B9B68019A9A426E
:100D7000F0D305E0019B00221A60019B043301932C
:100D8000039BDB68019A9A42F4D3039B10330393CD
:100D9000039B034A9342D6D304B070471C860008D5
:100DA0009C86000800000000000000000000000019
:100DB000704700BF000000000000000000000000BD
:100DC00008B5FFF7F5FF02F07BFD03F0A1F901F094
:100DD000D7F801F0EDF901F063FE02F019F901F026
:100DE0005FFC05F0A5F800F033F808BD0000000036
:100DF00082B001904FF08042019B53634FF08043DB
:100E000000221A614FF080430222DA6002B070477C
:100E10004FF080430022DA60704700BF00000000FE
:100E200082B001904FF08042019B536302B0704743
:100E30004FF08043DB6803F00203002B14BF012353
:100E40000023DBB2184670470000000000000000DD
:100E500008B504F06DFD08BD0000000000000000B2
:100E600000B583B00190FFF7E3FF0346002B02D0EB
:100E7000044805F05DFA0198FFF7BAFF03B05DF88A
:100E800004FB00BF9C86000800000000000000007A
:100E900008B5FFF7BDFF08BD00000000000000001E
:100EA00000B583B00190FFF7C3FF034683F0010351
:100EB000DBB2002B02D0044805F03AFA0198FFF7A4
:100EC000AFFF03B05DF804FBAC8600080000000033
:100ED00082B020230193019B83F3118802B07047F5
:100EE00082B000230193019B83F3118802B0704705
:100EF00082B00190019B019A1A60019B019A5A608D
:100F000002B0704700000000000000000000000078
:100F100008B5FFF7DDFF05F08BFA08BD0000000003
:100F200008B505F09DFA094B1B68084A93420AD0A0
:100F3000064B9B699A68054B1B689B689A4202D2D4
:100F4000034805F0F5F9FFF7CBFF08BD380B00208B
:100F5000DC86000800000000000000000000000027
:100F600000B583B001900198FFF7C2FF03B05DF8B0
:100F700004FB00BF000000000000000000000000B3
:100F800008B5FFF7C5FF08BD000000000000000025
:100F900008B5FFF7C5FF08BD000000000000000015
:100FA00000B583B001900198FFF7DAFF03B05DF858
:100FB00004FB00BF00000000000000000000000073
:100FC00000B583B0019000910099019806F0B8FB3C
:100FD0000346184603B05DF804FB00BF00000000A4
:100FE00000B583B0019000910099019806F0C8FB0C
:100FF00003B05DF804FB00BF00000000000000002B
:1010000000B583B0019000910099019806F0D0FBE3
:1010100003B05DF804FB00BF00000000000000000A
:1010200000B585B00390019200930B468DF80B300C
:10103000039B002B05D0019B002B02D0009B012BB2
:1010400002D81B4805F074F9039B1846FFF7A8FF68
:10105000039B9DF80B201A72039B0022DA60039B0E
:10106000019A5A61039B019A1A61009B0433069A04
:1010700002FB03F3019A1A44039B9A61009B1A1D19
:10108000039BDA61039B069A1A62039B019A5A62D8
:10109000039B00229A62039B0022DA62039B079A59
:1010A0001A63039B089A5A6305B05DF804FB00BFFE
:1010B000B8860008000000000000000000000000EA
:1010C00000B583B0019005F053FA019B0022DA606D
:1010D000019B5A6A019B5A61019B5A6A019B1A61E2
:1010E000019B00229A62019B0022DA62019B6FF051
:1010F00001011846FFF784FF03B05DF804FB00BF51
:1011000000B583B0019005F033FA019B1A69019B89
:101110005B699A4205D1019BDB68002B01D001235A
:1011200000E0002303F00103DBB2002B01D0002319
:1011300002E0019B1B690433184603B05DF804FB11
:1011400000B583B00190009105F012FA009B002BCE
:1011500005D0019BDB69043B009A9A4202D91D48E5
:1011600005F0E6F8019B1A69019B5B699A4205D17B
:10117000019BDB68002B01D0012300E0002303F07A
:101180000103DBB2002B02D0124805F0D1F8019B1D
:101190001B69009A1A60019BDB685A1C019BDA608C
:1011A000019B1A69019BDB691A44019B1A61019B2F
:1011B0001A69019B9B699A4203D3019B5A6A019B5E
:1011C0001A61019B00211846FFF70AFF03B05DF882
:1011D00004FB00BFC88600080000000000000000FB
:1011E00000B585B00190009105F0DAF911E0019B9E
:1011F0001B7A002B02D06FF0010323E0019B0099C2
:101200001846FFF7DDFE0390039B002B01DA039BDA
:1012100018E0019BDB68002BE9D0019BDB68002B09
:1012200002D10A4805F084F8019B5B691A1D019BF5
:101230009A62019B9A6A019B5B691B681A44019B35
:10124000DA620023184605B05DF804FBE886000862
:1012500000B583B0019005F0A3F9019BDB68002B7A
:1012600002D1134805F064F8019BDB685A1E019B0C
:10127000DA60019B5A69019BDB691A44019B5A6140
:10128000019B5A69019B9B699A4203D3019B5A6A4D
:10129000019B5A61019B00229A62019B1B6B002BF0
:1012A00003D0019B1B6B0198984703B05DF804FBCA
:1012B000048700080000000000000000000000009B
:1012C00000B585B001900091FFF75AFE019B9B6A23
:1012D000002B0BD100990198FFF782FF0390039B2D
:1012E000002B03D0FFF754FE039B14E0019B9B6A85
:1012F0001B780393019B9B6A5A1C019B9A62019B7A
:101300009A6A019BDB6A9A4202D30198FFF7A0FF19
:10131000FFF73EFE039B184605B05DF804FB00BFD7
:1013200000B589B0039002910192009300230793C6
:10133000019B002B02D1354804F0FAFFFFF720FE95
:10134000039B9B6A002B0BD100990398FFF748FF82
:101350000590059B002B03D0FFF71AFE079B50E07A
:10136000039BDB6A1A46039B9B6AD31A0693019A76
:10137000079BD31A069A9A4203D9019A079BD31A5C
:101380000693069B402B13D9039B9B6A4022194668
:101390000298FEF7B7FF029B40330293039B9B6AC0
:1013A00003F14002039B9A62079B4033079314E0CA
:1013B000039B9B6A069A19460298FEF7A3FF029ABE
:1013C000069B13440293039B9A6A069B1A44039B51
:1013D0009A62079A069B13440793039B9A6A039B9E
:1013E000DB6A9A4202D30398FFF732FFFFF7D0FD82
:1013F000079A019B9A4201D3079B02E0FFF7C0FDC9
:101400009EE7184609B05DF804FB00BF1C87000882
:1014100000B585B00390019200930B468DF80B3018
:10142000039B002B05D0019B002B02D0009B012BBE
:1014300002D81B4804F07CFF039B1846FFF7B0FD61
:10144000039B9DF80B201A72039B069ADA60039B9C
:10145000019A5A61039B019A1A61009B0433069A10
:1014600002FB03F3019A1A44039B9A61009B1A1D25
:10147000039BDA61039B069A1A62039B019A5A62E4
:10148000039B00229A62039B0022DA62039B079A65
:101490001A63039B089A5A6305B05DF804FB00BF0A
:1014A0002C87000800000000000000000000000081
:1014B00000B583B0019005F05BF8019B1A6A019BAF
:1014C000DA60019B5A6A019B5A61019B5A6A019B2F
:1014D0001A61019B00229A62019B0022DA62019B41
:1014E0006FF001011846FFF78BFD03B05DF804FBB8
:1014F00000B583B00190009105F03AF8019B1A699C
:10150000019B5B699A4205D1019BDB68002B01D0EE
:10151000012300E0002303F00103DBB2002B01D024
:10152000002307E0019B5B691A68009B1A60019B1E
:101530005B690433184603B05DF804FB000000004B
:1015400000B583B0019005F013F8019B1A69019B67
:101550005B699A4205D1019BDB68002B01D0012316
:1015600000E0002303F00103DBB2002B02D010489F
:1015700004F0DEFE019BDB685A1C019BDA60019BD4
:101580005A69019BDB691A44019B5A61019B5A69A4
:10159000019B9B699A4203D3019B5A6A019B5A6142
:1015A000019B00211846FFF71BFD03B05DF804FB0B
:1015B0003C87000800000000000000000000000060
:1015C00000B585B00190009104F0EAFF11E0019BA5
:1015D0001B7A002B02D06FF0010322E0019B0099DF
:1015E0001846FFF7EDFC0390039B002B01DA039BE9
:1015F00017E0019BDB68002BE9D0019BDB68002B27
:1016000002D10A4804F094FE019B1B691A1D019B3C
:101610009A62019B1A69019BDB691A44019BDA6299
:101620000023184605B05DF804FB00BF548700088E
:1016300000B583B00190009104F0B2FF009B002B35
:1016400005D0019BDB69043B009A9A4202D91948F4
:1016500004F06EFE019BDB68002B02D1154804F0FC
:1016600067FE019B1B69009A1A60019BDB685A1E8A
:10167000019BDA60019B1A69019BDB691A44019B9B
:101680001A61019B1A69019B9B699A4203D3019BD2
:101690005A6A019B1A61019B00229A62019B1B6B93
:1016A000002B03D0019B1B6B0198984703B05DF89A
:1016B00004FB00BF7087000800000000000000006D
:1016C00000B587B003900B4601928DF80B30FFF701
:1016D00057FC039B9B6A002B0BD101990398FFF7E2
:1016E0006FFF0590059B002B03D0FFF751FC059B76
:1016F00019E0039B9B6A9DF80B201A70039B9B6A61
:101700005A1C039B9A62039B9A6A039BDB6A9A4268
:1017100006D3039BDB69043B19460398FFF788FF58
:10172000FFF736FC0023184607B05DF804FB00BF46
:1017300000B589B0039002910192009300230793B2
:10174000019B002B02D1374804F0F2FDFFF718FC93
:10175000039B9B6A002B0BD100990398FFF730FF86
:101760000590059B002B03D0FFF712FC079B54E06C
:10177000039BDB6A1A46039B9B6AD31A0693019A62
:10178000079BD31A069A9A4203D9019A079BD31A48
:101790000693069B402B13D9039B9B6A4022029918
:1017A0001846FEF7AFFD029B40330293039B9B6AF2
:1017B00003F14002039B9A62079B4033079314E0B6
:1017C000039B9B6A069A02991846FEF79BFD029AB4
:1017D000069B13440293039B9A6A069B1A44039B3D
:1017E0009A62079A069B13440793039B9A6A039B8A
:1017F000DB6A9A4206D3039BDB69043B19460398D4
:10180000FFF716FFFFF7C4FB079A019B9A4201D32B
:10181000079B02E0FFF7B4FB9AE7184609B05DF8B2
:1018200004FB00BF848700080000000000000000E7
:1018300000B585B0019004F09BFE019B1A69019BE5
:101840005B699A4205D1019BDB68002B01D0012323
:1018500000E0002303F00103DBB2002B2DD0019B3D
:101860009B6A002B29D0019B9B6A1A46019B1B692E
:10187000D31A043B0393039B002B1ED0019B1B69CF
:10188000039A1A60019BDB685A1E019BDA60019B78
:101890001A69019BDB691A44019B1A61019B1A6951
:1018A000019B9B699A4203D3019B5A6A019B1A616F
:1018B000019B00229A62012300E00023184605B034
:1018C0005DF804FB000000000000000000000000C4
:1018D00082B020230193019B83F3118802B07047EB
:1018E00082B000230193019B83F3118802B07047FB
:1018F00082B00190019B019A1A60019B019A5A6083
:1019000002B070470000000000000000000000006E
:1019100008B5FFF7DDFF04F08BFD08BD00000000F7
:1019200008B504F09DFD094B1B68084A93420AD094
:10193000064B9B699A68054B1B689B689A4202D2CA
:10194000034804F0F5FCFFF7CBFF08BD380B00207F
:10195000A887000800000000000000000000000050
:1019600000B583B001900198FFF7C2FF03B05DF8A6
:1019700004FB00BF000000000000000000000000A9
:1019800008B5FFF7C5FF08BD00000000000000001B
:1019900008B5FFF7C5FF08BD00000000000000000B
:1019A00000B583B001900198FFF7DAFF03B05DF84E
:1019B00004FB00BF00000000000000000000000069
:1019C00000B583B0019000910099019805F0B8FE30
:1019D0000346184603B05DF804FB00BF000000009A
:1019E00000B583B0019000910099019805F0C8FE00
:1019F00003B05DF804FB00BF000000000000000021
:101A000000B587B0039002910192019B002B02D197
:101A10002D4804F08DFC039B9B68019A9A4202D9E1
:101A2000039B9B680193039B1B691A46039B9B695D
:101A3000D31A0593019A059B9A420DD2039B9B6989
:101A4000019A19460298FEF75DFC039B9A69019B77
:101A50001A44039B9A612BE0019A059B9A421CD978
:101A6000039B9B69059A19460298FEF74BFC029A64
:101A7000059B13440293019A059BD31A0493039B7D
:101A8000DB68049A19460298FEF73CFC039BDA686F
:101A9000049B1A44039B9A610AE0039B9B69019A89
:101AA00019460298FEF72EFC039BDA68039B9A61A5
:101AB000039B9A68019BD21A039B9A60019B18466C
:101AC00007B05DF804FB00BF948700080000000029
:101AD00000B587B0039002910192019B002B02D1C7
:101AE0002D4804F025FC039B9B68019A9A4202D979
:101AF000039B9B680193039B1B691A46039B5B69CD
:101B0000D31A0593019A059B9A420DD2039B5B69F8
:101B1000019A02991846FEF7F5FB039B5A69019B4F
:101B20001A44039B5A612BE0019A059B9A421CD9E7
:101B3000039B5B69059A02991846FEF7E3FB029A3C
:101B4000059B13440293019A059BD31A0493039BAC
:101B5000DB68049A02991846FEF7D4FB039BDA6807
:101B6000049B1A44039B5A610AE0039B5B69019A38
:101B700002991846FEF7C6FB039BDA68039B5A617D
:101B8000039B9A68019BD21A039B9A60019B18469B
:101B900007B05DF804FB00BF9C8700080000000050
:101BA00000B585B00390029101920093039B184603
:101BB000FFF7F6FE039B00229A60039B029ADA600D
:101BC000039B029A9A61039B029A5A61029A019BB3
:101BD0001A44039B1A61039B009ADA61039B069ADD
:101BE0001A6205B05DF804FB000000000000000070
:101BF00000B583B001900B468DF8033004F0B8FCBB
:101C0000019B5A69019B9B699A4205D1019B9B6884
:101C1000002B01D0012300E0002303F00103DBB21D
:101C200083F00103DBB2002B1DD0019B9B685A1C83
:101C3000019B9A60019B5B69591C019A51619DF857
:101C400003201A70019B5A69019B1B699A4203D3B6
:101C5000019BDA68019B5A61019B00211846FFF73E
:101C6000BFFE002301E04FF0FF33184603B05DF8DC
:101C700004FB00BF000000000000000000000000A6
:101C800000B585B001900091FFF77AFE0CE0019B52
:101C900000991846FFF794FE0290029B002B03DA8E
:101CA000FFF776FE029B26E0019B9B68002BEED09F
:101CB000019B9B685A1E019B9A60019B9B69591C62
:101CC000019A91611B788DF80F30019B9A69019BF5
:101CD0001B699A4203D3019BDA68019B9A61019BBD
:101CE000DB69002B03D0019BDB6901989847FFF764
:101CF0004FFE9DF80F30184605B05DF804FB00BF9D
:101D000000B589B00390029101920093039BDB69B7
:101D10000793019B0693019B002B02D11B4804F003
:101D200007FBFFF72DFE24E0019A02990398FFF7C5
:101D300067FE0590059B002B09D1039B009918466F
:101D4000FFF73EFE0490049B002B15D111E0079B8A
:101D5000002B02D0079B03989847FFF719FE019AC2
:101D6000059BD31A0193029A059B13440293FFF734
:101D700007FE019B002BD7D1FFF70AFE069A019BB5
:101D8000D31A184609B05DF804FB00BFB4870008F9
:101D900000B585B00390029101920093039B184611
:101DA000FFF7FEFD039B019A9A60039B029ADA609B
:101DB000039B029A9A61039B029A5A61029A019BC1
:101DC0001A44039B1A61039B009ADA61039B069AEB
:101DD0001A6205B05DF804FB00000000000000007E
:101DE00000B587B003900B4601928DF80B30FFF7DA
:101DF000C7FD0CE0039B01991846FFF7E1FD059034
:101E0000059B002B03DAFFF7C3FD059B25E0039B31
:101E10009B68002BEED0039B9B685A1E039B9A6025
:101E2000039B5B69591C039A51619DF80B201A7042
:101E3000039B5A69039B1B699A4203D3039BDA688D
:101E4000039B5A61039BDB69002B03D0039BDB6977
:101E500003989847FFF79CFD0023184607B05DF8EC
:101E600004FB00BF000000000000000000000000B4
:101E700000B585B0019004F07BFB019B5A69019B82
:101E80009B699A4205D1019B9B68002B01D00123DD
:101E900000E0002303F00103DBB283F00103DBB2B7
:101EA000002B1ED0019B9B685A1C019B9A60019BD2
:101EB0009B69591C019A91611B788DF80F30019B29
:101EC0009A69019B1B699A4203D3019BDA68019BC3
:101ED0009A61019B00211846FFF782FD9DF80F30A3
:101EE00001E04FF0FF33184605B05DF804FB00BF7A
:101EF00000B589B00390029101920093039BDB69C6
:101F00000793019B0693019B002B02D11B4804F011
:101F10000FFAFFF735FD24E0019A02990398FFF7C5
:101F2000D7FD0590059B002B09D1039B009918460E
:101F3000FFF746FD0490049B002B15D111E0079B91
:101F4000002B02D0079B03989847FFF721FD019AC9
:101F5000059BD31A0193029A059B13440293FFF742
:101F60000FFD019B002BD7D1FFF712FD069A019BB5
:101F7000D31A184609B05DF804FB00BFC4870008F7
:101F800008B503F045FD08BD00000000000000009A
:101F900082B00190019B01221A70019B00225A60BD
:101FA000019B0022DA60019B00221A7402B0704784
:101FB00082B00190019B019A1A6002B0704700BF85
:101FC00000B583B001900198FFF7F2FF03B05DF810
:101FD00004FB00BF00000000000000000000000043
:101FE00000B583B0019000910099019805F028FF99
:101FF00003B05DF804FB00BF00000000000000001B
:1020000000B585B0039002910192039B03F130006B
:102010004FF0FF33019A0299FFF76AFF0346184613
:1020200005B05DF804FB00BF0000000000000000E8
:1020300000B585B0039002910192039B03F10C005F
:102040004FF0FF33019A0299FFF75AFE03461846F4
:1020500005B05DF804FB00BF0000000000000000B8
:1020600000B583B001900B468DF80330019B3033EF
:102070009DF803104FF0FF321846FFF7B1FE0346FC
:10208000184603B05DF804FB0000000000000000EB
:1020900000B583B00190019B0C334FF0FF3118461F
:1020A000FFF7EEFD0346184603B05DF804FB00BFE2
:1020B00000B585B003900B4601928DF80B30039B61
:1020C00030339DF80B10019A1846FFF789FE03463E
:1020D000184605B05DF804FB000000000000000099
:1020E00000B583B001900091019B0C330099184614
:1020F000FFF7C6FD0346184603B05DF804FB00BFBA
:1021000000B585B00390029101920093039B03F107
:102110003000009B019A0299FFF7EAFE0346184639
:1021200005B05DF804FB00BF0000000000000000E7
:1021300000B585B00390029101920093039B03F1D7
:102140000C00009B019A0299FFF7DAFD034618463E
:1021500005B05DF804FB00BF0000000000000000B7
:1021600000B587B0039002910192039B0593059BF4
:10217000002B02D10B4804F0DBF8029B002B08D0A7
:10218000012B09D1019B002B06D0064804F0D0F8A2
:1021900002E0044804F0CCF80023184607B05DF8CC
:1021A00004FB00BFFC8700080000000000000000E6
:1021B00008B503F00DFE08BD00000000000000009F
:1021C00000B587B0059004910392059B124A1A60EE
:1021D000059B04331846FFF7F3FE059B01221A7294
:1021E000059B03F10C00059B03F15401059B009333
:1021F000049B1022FFF7D4FC059B03F13000059BE4
:1022000003F16401059B0093039B1022FFF7C0FDBF
:1022100007B05DF804FB00BFD48700080000000091
:1022200000B583B001900B468DF8033004F0A0F99F
:10223000019B002B02D1114804F07AF8019B5B69E5
:10224000002B05D1019B043304211846FFF7C8FE7B
:10225000019B0C339DF8032011461846FFF7C8FC7C
:102260000346002B06DA019B04334FF480611846C5
:10227000FFF7B6FE03B05DF804FB00BF048800085A
:1022800082B020230193019B83F3118802B0704731
:1022900082B000230193019B83F3118802B0704741
:1022A00008B5FFF7EDFF08BD0000000000000000CA
:1022B00008B5FFF7EDFF08BD0000000000000000BA
:1022C00008B5FFF7DDFF04F0B3F808BD000000001B
:1022D00008B504F0C5F8094B1B68084A93420AD0B8
:1022E000064B9B699A68054B1B689B689A4202D211
:1022F000034804F01DF8FFF7CBFF08BD380B0020A2
:102300005C880008000000000000000000000000E1
:1023100008B5FFF7C5FF04F0BBF808BD00000000DA
:1023200008B504F0CDF8FFF7C3FF08BD00000000BA
:1023300082B00190019B019A1A6002B0704700BF01
:1023400008B5FFF7BDFF08BD000000000000000059
:1023500008B5FFF7BDFF08BD000000000000000049
:1023600008B5FFF7D5FF08BD000000000000000021
:1023700008B5FFF7D5FF08BD000000000000000011
:1023800000B583B001900198FFF7D2FF03B05DF86C
:1023900004FB00BF0000000000000000000000007F
:1023A00000B583B0019000910099019805F048FDB7
:1023B00003B05DF804FB00BF000000000000000057
:1023C00000B585B00190019BD3F88C341B681B7855
:1023D000042B03D1019B1B7A022B01D001232BE09C
:1023E000019BD3F88C341B685A89019BD3F88C3439
:1023F0001B79194601238B409BB213409BB2002BE3
:1024000001D0012318E0019B0C331846FEF778FE3B
:102410000390039B002B01D101230DE0019BD3F816
:102420008C341868019BD3F88C3459794FF480733D
:10243000039A00F0E5FE0023184605B05DF804FBA2
:1024400000B585B0039002910192039B03F1440013
:102450004FF0FF33019A0299FFF76AF903461846D5
:1024600005B05DF804FB00BF0000000000000000A4
:1024700000B585B0039002910192039B03F10C001B
:102480004FF0FF33019A0299FEF74AFF03461846C0
:1024900005B05DF804FB00BF000000000000000074
:1024A00000B583B001900B468DF80330019B443397
:1024B0009DF803104FF0FF321846FFF701F903466D
:1024C000184603B05DF804FB0000000000000000A7
:1024D00000B583B00190019B0C334FF0FF311846DB
:1024E000FEF7EEFE0346184603B05DF804FB00BF9E
:1024F00000B585B003900B4601928DF80B30039B1D
:1025000044339DF80B10019A1846FFF7D9F803469B
:10251000184605B05DF804FB000000000000000054
:1025200000B583B001900091019B0C3300991846CF
:10253000FEF7C6FE0346184603B05DF804FB00BF75
:1025400000B585B00390029101920093039B03F1C3
:102550004400009B019A0299FFF7EAF803461846E7
:1025600005B05DF804FB00BF0000000000000000A3
:1025700000B585B00390029101920093039B03F193
:102580000C00009B019A0299FEF7CAFE034618460A
:1025900005B05DF804FB00BF000000000000000073
:1025A00000B587B0039002910192039B0593059BB0
:1025B000002B02D10B4803F0BBFE029B002B08D07E
:1025C000012B09D1019B002B06D0064803F0B0FE79
:1025D00002E0044803F0ACFE0023184607B05DF8A3
:1025E00004FB00BF3C880008000000000000000061
:1025F00000B585B00190019B5B6B03930398FFF7D7
:10260000DFFE05B05DF804FB0000000000000000E4
:1026100000B587B00190019B5B6B0593059BD3F8D8
:102620008C341B681B78042B2FD1059B1B7A022B43
:102630002BD1059BD3F88C341B681A89059BD3F8E2
:102640008C341B79194601238B409BB213409BB2FB
:10265000002B1BD1059B443303AA11461846FEF7F5
:1026600047FF0490049B002B02D10A4803F060FE50
:10267000059BD3F88C341868059BD3F88C341979F2
:10268000039B049A00F00CFE00E000BF07B05DF869
:1026900004FB00BF448800080000000000000000A8
:1026A000704700BF000000000000000000000000B4
:1026B00000B587B00590059B174A1A60059B043347
:1026C0001846FFF75DFE059B01221A72059B03F178
:1026D0000C00059B03F17C02059B02930F4B0193B9
:1026E000022300934FF480730121FEF799FC059BB0
:1026F00003F14400059B03F52172059B0293084BEF
:102700000193022300934FF480730121FEF780FEB2
:1027100007B05DF804FB00BF14880008F12500082D
:10272000112600080000000000000000000000006A
:1027300000B585B001900091009B1B680393019B3D
:10274000002B02D11C4803F0F3FDFFF7F9FD019BBC
:102750001B7A012B06D0019B1B7A022B02D0164854
:1027600003F0E6FD009B1B79013B039A08339B00B5
:102770001344019A5A60009B5B795A1E039B0E32E8
:10278000019943F82210009B9B79002B08D0009BF5
:102790009B79013B039A08339B001344019A5A60CA
:1027A000019B009AC3F88C24019B02221A72FFF746
:1027B000CFFD05B05DF804FB508800080000000064
:1027C00000B583B00190019B0C331846FEF778FCEE
:1027D000019B00221A75019B44331846FEF768FEE0
:1027E000019B002283F84C20019B043301211846F1
:1027F000FFF7D6FD0198FFF7E3FD03B05DF804FB9A
:1028000082B00190019B93F85C3003F06003202BB1
:102810002CD1019B93F85D30212B04D0222B18D0B2
:10282000202B0BD020E0019B124A1A65019B072246
:102830005A65019B00229A65012318E0019B0D4A0D
:102840001A65019B07225A65019B00229A650123A4
:102850000DE0019B00221A65019B00225A65019B35
:1028600000229A65012302E0002300E000231846BD
:1028700002B07047000800200000000000000000C7
:1028800000B585B00190019BD3F88C341B681B7890
:10289000042B36D1019B1B7A022B32D1019BD3F83A
:1028A0008C341B681A89019BD3F88C341B79194628
:1028B00001238B409BB213409BB2002B21D1019B83
:1028C00044331846FEF7B4FF0346002B19D0019B92
:1028D000443302AA11461846FEF70AFE0390039BF2
:1028E000002B02D1084803F023FD019BD3F88C3460
:1028F0001868019BD3F88C341979029B039A00F075
:10290000CFFC05B05DF804FB6888000800000000FB
:1029100000B587B001900B468DF803309DF8033069
:10292000013B019A08339B0013445B680593059BA8
:10293000002B56D0FFF714FD059B043308211846E1
:10294000FFF72EFD9DF80330019A02339B001344DC
:102950005B685B691B68002B04D0059B44331846F9
:10296000FEF7EEFD059B443303AA11461846FEF719
:10297000BFFD0490049B002B07D0039B9DF8031020
:10298000049A019800F08CFC28E09DF80330019A2D
:1029900002339B0013445B685B691B68002B1DD0EE
:1029A0009DF80330019A02339B0013445B685B6916
:1029B0001A689DF80330019902339B000B445B6851
:1029C0001B8A013B1340002B08D1019B03F15C02E1
:1029D0009DF803100023019800F062FCFFF7C8FC8B
:1029E00000E000BF07B05DF804FB00BF000000007E
:1029F00000B585B001900B468DF803309DF803308B
:102A00005A1E019B0E3253F822300393039B002B76
:102A100024D0FFF7A5FC039BD3F88C341A68039BE2
:102A2000D3F88C345B7902339B0013445B689B6959
:102A30005B680293029B002B0BD0039B04330421A1
:102A40001846FFF7ADFC039B0C3302991846FEF7BE
:102A500077FB0398FFF7B4FCFFF78AFC05B05DF83D
:102A600004FB00BF000000000000000000000000A8
:102A700082B001900B468DF8033002B0704700BF62
:102A800000B583B00190019805F0BAF803B05DF885
:102A900004FB00BF00000000000000000000000078
:102AA00008B502F0B5FE08BD0000000000000000FF
:102AB00000B583B00190019B01221A70019B002296
:102AC0005A60019B00229A60019B0C331846FFF765
:102AD000D7FF03B05DF804FB000000000000000019
:102AE00082B020230193019B83F3118802B07047C9
:102AF00082B000230193019B83F3118802B07047D9
:102B000008B5FFF7EDFF08BD000000000000000061
:102B100008B5FFF7EDFF08BD000000000000000051
:102B200008B5FFF7DDFF03F083FC08BD00000000DF
:102B300008B503F095FC094B1B68084A93420AD07C
:102B4000064B9B699A68054B1B689B689A4202D2A8
:102B5000034803F0EDFBFFF7CBFF08BD380B002067
:102B60008C88000800000000000000000000000049
:102B700008B5FFF7C5FF03F08BFC08BD000000009F
:102B800008B503F09DFCFFF7C3FF08BD000000007F
:102B900008B5FFF7C5FF08BD0000000000000000F9
:102BA00008B5FFF7C5FF08BD0000000000000000E9
:102BB00008B5FFF7DDFF08BD0000000000000000C1
:102BC00008B5FFF7DDFF08BD0000000000000000B1
:102BD00084B00190019B5A1C01921B78ADF80E3015
:102BE000019B1B781B021AB2BDF90E3013431BB2B6
:102BF000ADF80E30BDF80E30184604B0704700BF77
:102C000000B583B00190019B93F85E20019B83F88F
:102C10006620019802F084FA019B5B681B68002B18
:102C200005D0019B5B681B68012101989847019BB7
:102C300003221A7003B05DF804FB00BF000000001F
:102C400070B584B00190019B93F85C3003F07F0273
:102C5000019B93F85D301B02134340F20232934212
:102C600000F0978140F20232934215D8022B00F017
:102C70000681022B05D8002B27D0012B00F0F48011
:102C8000BBE1B3F5817F00F05081B3F5407F44D0C4
:102C9000B3F5807F26D0B0E140F20162934206D8BE
:102CA000B3F5C06F6CD2B3F5A06F51D0A5E1B3F509
:102CB000106F00F0988040F60242934200F0D480FA
:102CC000B3F5006F00F0828097E1019B03F164028D
:102CD000019B1A65019B02225A65019B00229A659D
:102CE00001238BE1019B93F85E30012B13D1019BF3
:102CF000B3F8643023F002039AB2019BA3F8642076
:102D0000019B00221A65019B00225A65019B00224B
:102D10009A65012372E1002370E1019B93F85E3014
:102D2000012B13D1019BB3F8643043F002039AB234
:102D3000019BA3F86420019B00221A65019B0022DD
:102D40005A65019B00229A65012357E1002355E152
:102D5000019B93F85C30002B07D1019B93F85D3009
:102D6000052B02D10198FFF74BFF019B00221A654A
:102D7000019B00225A65019B00229A6501233DE1D7
:102D8000019B5B685C68019B93F85F50019B93F823
:102D90005E60019B60331846FFF71AFF0346324618
:102DA00029460198A0470390039B002B01D10023E3
:102DB00024E1039B5A68019B1A65039B1A68019BD7
:102DC0005A65019B00229A65012317E1019B03F1DB
:102DD0006702019B1A65019B01225A65019B002233
:102DE0009A6501230AE1019B1B78042B18D1FFF798
:102DF000DFFE019800F0CCF9FFF7E2FE019B002214
:102E000083F86720019B03221A70019B5B681B6893
:102E1000002B05D0019B5B681B6803210198984734
:102E2000019B93F85E30002B13D0019B93F85E203A
:102E3000019B83F86720019B04221A70019B5B6849
:102E40001B68002B05D0019B5B681B680221019861
:102E50009847019B00221A65019B00225A65019B3D
:102E600000229A650123C9E0019B664A1A65019B0D
:102E700002225A65019B00229A650123BEE0019B54
:102E800093F860305BB2002B27DA019B93F8603037
:102E900003F00F03DBB21946019802F0B1FA0346C2
:102EA000012B02D0022B0BD015E0019B564A1A656C
:102EB000019B02225A65019B00229A6501239DE035
:102EC000019B524A1A65019B02225A65019B00220E
:102ED0009A65012392E0002390E0019B93F8603013
:102EE00003F00F03DBB21946019802F069FA0346BA
:102EF000012B02D0022B0BD015E0019B424A1A6530
:102F0000019B02225A65019B00229A65012375E00C
:102F1000019B3E4A1A65019B02225A65019B0022D1
:102F20009A6501236AE0002368E0019B93F85E3014
:102F3000002B01D0002361E0019B93F8603003F087
:102F40000F03002B1AD0019B93F860305BB2002B6B
:102F50000ADA019B93F8603003F00F03DBB21946E5
:102F6000019802F035FC09E0019B93F8603003F012
:102F70000F03DBB21946019802F00AFC019B002204
:102F80001A65019B00225A65019B00229A65012364
:102F900034E0019B93F85E30002B01D000232DE03C
:102FA000019B93F8603003F00F03002B1AD0019BB4
:102FB00093F860305BB2002B0ADA019B93F8603023
:102FC00003F00F03DBB21946019802F0C1FB09E0E0
:102FD000019B93F8603003F00F03DBB219460198B0
:102FE00002F096FB019B00221A65019B00225A65A4
:102FF000019B00229A65012300E00023184604B0DB
:1030000070BD00BF748800087C88000878880008BC
:1030100008B501F015FF08BD000000000000000029
:1030200084B00190019B01221A70019B00225A601A
:10303000002303930FE0019A039B08339B00134482
:1030400000225A60019B039A0E32002143F822109D
:10305000039B01330393039B042BECD9019B0022B8
:103060001A81019B00225A8104B0704700000000C1
:1030700000B585B001900091019B002B02D0009B10
:10308000002B02D1164803F053F9FFF781FD019B95
:103090001B78012B06D0019B1B78022B02D0104815
:1030A00003F046F9019B009A5A600023039309E05C
:1030B000019A039B02339B00134400225A60039B36
:1030C00001330393039B052BF2D9019801F0D8FE3D
:1030D000019B02221A70FFF763FD05B05DF804FB47
:1030E00080880008000000000000000000000000D0
:1030F00000B585B003900B4601928DF80B3003F0BC
:1031000037FA039B002B02D0019B002B02D11E48F3
:1031100003F00EF9039B1B78042B02D01A4803F02E
:1031200007F99DF80B30039A02339B0013445B6848
:10313000002B02D0144803F0FBF89DF80B30039AE3
:1031400002339B001344019A5A60019B5B69002B78
:1031500006D0019B5B6910220021184605F094F906
:10316000019B9B69002B06D0019B9B6910220021CB
:10317000184605F089F99DF80B301946039801F0BF
:10318000E7FF05B05DF804FB988800080000000028
:1031900000B585B0019003F0EBF9019B002B02D143
:1031A000164803F0C5F8019B1B78042B02D0134886
:1031B00003F0BEF8019B1B8903F001039AB2019B47
:1031C0001A81019B5B8903F001039AB2019B5A812A
:1031D0000123039309E0019A039B02339B001344EC
:1031E00000225A60039B01330393039B052BF2D902
:1031F000019802F0D5F805B05DF804FBAC88000832
:1032000000B587B00390019200930B468DF80B3008
:1032100003F0AEF9039B002B03D09DF80B30052B78
:1032200002D91C4803F084F8039B5A899DF80B309F
:10323000012101FA03F39BB213409BB2002B02D091
:10324000144803F075F8039B5A899DF80B3001214F
:1032500001FA03F39BB213439AB2039B5A819DF880
:103260000B30039A02339B0013445B689B69059300
:10327000059B019A9A60059B009A1A60059B0022A3
:103280005A609DF80B301946039802F0F1F807B028
:103290005DF804FBC4880008000000000000000086
:1032A00000B587B00390019200930B468DF80B3068
:1032B00003F05EF9039B002B03D09DF80B30052B28
:1032C00002D91C4803F034F8039B1A899DF80B308F
:1032D000012101FA03F39BB213409BB2002B02D0F1
:1032E000144803F025F8039B1A899DF80B3001213F
:1032F00001FA03F39BB213439AB2039B1A819DF820
:103300000B30039A02339B0013445B685B6905939F
:10331000059B019A9A60059B009A1A60059B002202
:103320005A609DF80B301946039802F041F907B036
:103330005DF804FBD88800080000000000000000D1
:1033400000B585B00190019B02221A70019B0022FA
:10335000A3F86420019B002283F86620019B0022D1
:1033600083F86720019B00221A81019B00225A8169
:103370000023039309E0019A039B02339B0013444B
:1033800000225A60039B01330393039B052BF2D960
:10339000019B002283F84C20019801F029FE019B3B
:1033A0005B681B68002B05D0019B5B681B680021D4
:1033B0000198984705B05DF804FB00BF00000000CD
:1033C00000B583B00190019B1A78019B83F86820B7
:1033D000019B05221A70019B5B681B68002B05D0BE
:1033E000019B5B681B6804210198984703B05DF856
:1033F00004FB00BF0000000000000000000000000F
:1034000000B583B00190019B93F86820019B1A706E
:10341000019B5B681B68002B05D0019B5B681B68E8
:1034200005210198984703B05DF804FB00000000F7
:1034300000B585B001900B468DF80330019B93F8E1
:103440004C30002B03D0019B002283F84C20019BC1
:1034500003F15C029DF803301946019801F0F0FF7A
:10346000019B5B689B68002B0AD0019B5B689B6893
:1034700001989847034683F00103DBB2002B27D065
:10348000019B93F85C3003F06003002B08D1019896
:10349000FFF7D6FB034683F00103DBB2002B17D006
:1034A0000021019802F054F90021019802F030F94E
:1034B000019B5B681B68002B05D0019B5B681B6848
:1034C000062101989847019B062283F84C205BE077
:1034D000019B62331846FFF77BFB03460393019B76
:1034E0005B6D039A9A4202D2019B039A5A65019B33
:1034F00093F85C305BB2002B23DA019B5B6D002BF1
:1035000010D0019B092283F84C20FFF751FB019B4F
:103510001A6D019B5B6D00210198FFF7C1FEFFF75B
:103520004FFB31E0019B142283F84C20FFF740FB56
:103530000023002200210198FFF762FEFFF740FB05
:1035400022E0019B5B6D002B10D0019B152283F8BC
:103550004C20FFF72DFB019B1A6D019B5B6D002139
:103560000198FFF74DFEFFF72BFB0DE0019B0B22AF
:1035700083F84C20FFF71CFB002300220021019858
:10358000FFF78EFEFFF71CFB05B05DF804FB00BFE4
:1035900000B585B001900B468DF80330019B93F880
:1035A0004C30152B00F28E8001A252F823F000BFA0
:1035B0008F360008C5360008C5360008C536000835
:1035C000C5360008C536000895360008C53600081F
:1035D000C536000809360008573600087536000859
:1035E000C5360008C5360008C5360008C5360008CF
:1035F000C5360008C5360008C5360008C5360008BF
:103600008F3600088F360008019B62331846FFF79B
:10361000DFFA03460393019B5B6D039A9A421AD922
:10362000019B5B6D019AD268128AB3FBF2F102FB37
:1036300001F29B1A002B0ED1FFF7BAFA00230022E9
:1036400000210198FFF72CFEFFF7BAFA019B0A222E
:1036500083F84C2039E0019B142283F84C20FFF7BB
:10366000A7FA0023002200210198FFF7C9FDFFF708
:10367000A7FA2AE0019B9B6D002B03D0019B9B6D59
:1036800001989847019B002283F84C201DE01048C8
:1036900002F04EFE0021019802F05AF80021019834
:1036A00002F036F8019B5B681B68002B05D0019B7C
:1036B0005B681B68062101989847019B062283F8E6
:1036C0004C2002E0024802F033FE05B05DF804FB36
:1036D000EC8800080000000000000000000000006E
:1036E00000B583B001900B468DF80330019B93F831
:1036F0004C30152B6BD801A252F823F099370008F3
:10370000CF370008CF370008CF370008CF37000881
:10371000CF3700089F370008CF370008CF370008A1
:10372000993700089937000899370008CF37000803
:10373000CF370008CF370008CF370008CF37000851
:10374000CF370008CF370008CF370008733700089D
:1037500055370008019B0B2283F84C20FFF728FA0D
:103760000023002200210198FFF79AFDFFF728FAB5
:1037700030E0019BDB689B695B68002B2AD1019BD1
:103780009B6D002B03D0019B9B6D01989847019B7B
:10379000002283F84C201DE0104802F0C9FD0021F2
:1037A000019801F0D5FF0021019801F0B1FF019BC4
:1037B0005B681B68002B05D0019B5B681B680621BA
:1037C00001989847019B062283F84C2002E00348A9
:1037D00002F0AEFD03B05DF804FB00BFF8880008FE
:1037E00082B001900091009BDBB2114A1B01D9B25B
:1037F000019B134403F540730A461A70019B03F0C2
:103800001F020B49019B5B09012000FA02F26033A1
:1038100041F82320019B03F01F020549019B5B092E
:10382000012000FA02F241F8232002B0704700BFE5
:1038300000E100E0000000000000000000000000C7
:1038400008B506210620FFF7CBFF06210720FFF76A
:10385000C7FF06210820FFF7C3FF06210920FFF755
:10386000BFFF06210A20FFF7BBFF06211720FFF745
:10387000B7FF06212820FFF7B3FF08BD00000000B6
:103880000D4B1B680C4A43F4807313600B4B1B6F8A
:1038900003F44073B3F5007F06D0084B4FF4803239
:1038A0001A67064B00221A67034B5B68024A23F42F
:1038B00000735360704700BF007000400038024042
:1038C00008B5264B1B69254A6FEAC3536FEAD353E9
:1038D0001361224B1B69214AC3F3080313611F4B79
:1038E0001B691E4B5B691D4B4FF0FF325A611B4B2E
:1038F0005B691A4B00225A61184B5B69174B1B6AB4
:10390000164A63F080531362144B1B6A134A03F088
:1039100080531362114B1B6A104B5B6A0F4B4FF0C5
:10392000FF325A620D4B5B6A0C4B00225A620B4B02
:103930005B6A0A4B1B6C094A43F080531364074BC4
:103940001B6E064A43F080531366044B1B6EFFF751
:1039500097FF00F0A5FBFFF773FF08BD003802409A
:10396000434B4FF080521A64424B4FF440421A606E
:103970003F4B1B683E4A43F0010313603C4B1B68FE
:1039800003F00203002BF9D0394B9B68384A23F02F
:1039900003039360364B9B6803F00C03002BF9D1B3
:1039A000334B1B68324A03F0F9031360304B00229B
:1039B0009A602F4B1B682E4A43F4803313602C4BC4
:1039C0001B6803F40033002BF9D0294B5B6F284AA6
:1039D00043F001035367264B5B6F03F00203002B98
:1039E000F9D0234B244A5A60214B1B68204A43F0EC
:1039F000807313601F4B5B6803F48043002BF9D086
:103A00001B4B1B6803F00073002BF9D0184B1B4AAB
:103A10009A601B4B1B681B4A934209D11A4B1B68C7
:103A20001A4A934204D11A4B40F205121A6003E07D
:103A3000174B40F205721A600D4B9B680C4A43F01D
:103A4000020393600A4B9B6803F00C03082BF9D127
:103A5000074B5B6C064A43F480435364044B5B6E34
:103A6000034A43F480435366014B5B6E704700BFCB
:103A70000038024000700040085440070094883825
:103A8000002004E01164002000ED00E041C20F417D
:103A9000003C0240000000000000000000000000A8
:103AA00000B583B0104802F053FE02F021FD0F4B29
:103AB0001B6803F03D0301930C4A019B93600C4B80
:103AC0005B68002B06D00A4B5B68094A9268019933
:103AD0001046984702F02CFD034802F061FE04F006
:103AE0009FFC03B05DF804FBC4890008006002403D
:103AF0000808002000000000000000000000000096
:103B000000B583B0114802F023FE02F0F1FC104B27
:103B10001B689B0903F03D0301930D4A019B9B0128
:103B200093600C4BDB68002B06D00A4BDB68094A1C
:103B3000126901991046984702F0FAFC034802F016
:103B40002FFE04F06DFC03B05DF804FBD089000883
:103B50000060024008080020000000000000000093
:103B600000B583B0114802F0F3FD02F0C1FC104B28
:103B70001B681B0C03F03D0301930D4A019B1B04C2
:103B800093600C4B5B69002B06D00A4B5B69094ABA
:103B9000926901991046984702F0CAFC034802F066
:103BA000FFFD04F03DFC03B05DF804FBDC89000878
:103BB0000060024008080020000000000000000033
:103BC00000B583B0114802F0C3FD02F091FC104B28
:103BD0001B689B0D03F03D0301930D4A019B9B0560
:103BE00093600C4BDB69002B06D00A4BDB69094A5A
:103BF000126A01991046984702F09AFC034802F0B5
:103C0000CFFD04F00DFC03B05DF804FBE88900086B
:103C100000600240080800200000000000000000D2
:103C200000B583B0104802F093FD02F061FC0F4B29
:103C30005B6803F03D0301930C4A019BD3600C4B7E
:103C40005B6A002B06D00A4B5B6A094A926A0199AB
:103C50001046984702F06CFC034802F0A1FD04F006
:103C6000DFFB03B05DF804FBF4890008006002404C
:103C70000808002000000000000000000000000014
:103C800000B583B0114802F063FD02F031FC104B27
:103C90005B689B0903F03D0301930D4A019B9B0167
:103CA000D3600C4BDB6A002B06D00A4BDB6A094A57
:103CB000126B01991046984702F03AFC034802F053
:103CC0006FFD04F0ADFB03B05DF804FB008A000853
:103CD0000060024008080020000000000000000012
:103CE00000B583B0114802F033FD02F001FC104B27
:103CF0005B681B0C03F03D0301930D4A019B1B0401
:103D0000D3600C4B5B6B002B06D00A4B5B6B094AF4
:103D1000926B01991046984702F00AFC034802F0A2
:103D20003FFD04F07DFB03B05DF804FB0C8A000846
:103D300000600240080800200000000000000000B1
:103D400000B583B0114802F003FD02F0D1FB104B27
:103D50005B689B0D03F03D0301930D4A019B9B059E
:103D6000D3600C4BDB6B002B06D00A4BDB6B094A94
:103D7000126C01991046984702F0DAFB034802F0F2
:103D80000FFD04F04DFB03B05DF804FB188A00083A
:103D90000060024008080020000000000000000051
:103DA00000B583B0104802F0D3FC02F0A1FB0F4B2A
:103DB0001B6803F03D0301930C4A019B93600C4B7D
:103DC0005B6C002B06D00A4B5B6C094A926C019924
:103DD0001046984702F0ACFB034802F0E1FC04F007
:103DE0001FFB03B05DF804FB248A00080064024056
:103DF0000808002000000000000000000000000093
:103E000000B583B0114802F0A3FC02F071FB104B27
:103E10001B689B0903F03D0301930D4A019B9B0125
:103E200093600C4BDB6C002B06D00A4BDB6C094A11
:103E3000126D01991046984702F07AFB034802F090
:103E4000AFFC04F0EDFA03B05DF804FB308A000823
:103E5000006402400808002000000000000000008C
:103E600000B583B0114802F073FC02F041FB104B27
:103E70001B681B0C03F03D0301930D4A019B1B04BF
:103E800093600C4B5B6D002B06D00A4B5B6D094AAF
:103E9000926D01991046984702F04AFB034802F0E0
:103EA0007FFC04F0BDFA03B05DF804FB3C8A000817
:103EB000006402400808002000000000000000002C
:103EC00000B583B0114802F043FC02F011FB104B27
:103ED0001B689B0D03F03D0301930D4A019B9B055D
:103EE00093600C4BDB6D002B06D00A4BDB6D094A4F
:103EF000126E01991046984702F01AFB034802F02F
:103F00004FFC04F08DFA03B05DF804FB488A00080A
:103F100000640240080800200000000000000000CB
:103F200000B583B0104802F013FC02F0E1FA0F4B29
:103F30005B6803F03D0301930C4A019BD3600C4B7B
:103F40005B6E002B06D00A4B5B6E094A926E01999C
:103F50001046984702F0ECFA034802F021FC04F006
:103F60005FFA03B05DF804FB548A00080064024065
:103F70000808002000000000000000000000000011
:103F800000B583B0114802F0E3FB02F0B1FA104B28
:103F90005B689B0903F03D0301930D4A019B9B0164
:103FA000D3600C4BDB6E002B06D00A4BDB6E094A4C
:103FB000126F01991046984702F0BAFA034802F0CE
:103FC000EFFB04F02DFA03B05DF804FB608A0008F3
:103FD000006402400808002000000000000000000B
:103FE00000B583B0114802F0B3FB02F081FA104B28
:103FF0005B681B0C03F03D0301930D4A019B1B04FE
:10400000D3600C4B5B6F002B06D00A4B5B6F094AE9
:10401000926F01991046984702F08AFA034802F01D
:10402000BFFB04F0FDF903B05DF804FB6C8A0008E7
:1040300000640240080800200000000000000000AA
:1040400000B583B0124802F083FB02F051FA114B25
:104050005B689B0D03F03D0301930E4A019B9B059A
:10406000D3600D4BDB6F002B07D00B4BDB6F0A4A85
:10407000D2F8802001991046984702F059FA044876
:1040800002F08EFB04F0CCF903B05DF804FB00BF36
:10409000788A000800640240080800200000000040
:1040A00082B0174B00221A600023019312E01549D9
:1040B000019A13465B0013449B000B441B680022CB
:1040C0001A600F4A019BDB00134400225A60019BD7
:1040D00001330193019B0F2BE9D90B4B4FF0FF32BA
:1040E0009A60094B4FF0FF32DA60084B4FF0FF3215
:1040F0009A60064B4FF0FF32DA6002B0704700BFA3
:1041000008080020048900080060024000640240A2
:10411000704700BF00000000000000000000000029
:104120008EB0039002910192019B03F003030D9363
:10413000019B9B0803F001030C93019BDB0803F038
:1041400003030B93019B5B0903F003030A93019B99
:10415000DB0903F00F03089300230993029B03F08C
:104160000103002B79D0099B03F007039B00089AF9
:1041700002FA03F307930122099B02FA03F3069361
:10418000099B5B00032202FA03F30593099B03F0EA
:1041900007039B000F2202FA03F30493039B5A6860
:1041A000069BDB431A400C9B1A43039B5A60039BFC
:1041B0009A68059BDB431A400B9B1A43039B9A604A
:1041C000039BDA68059BDB431A400A9B1A43039B57
:1041D000DA60019B03F00303022B1FD1099B072B1D
:1041E00009D8039B1A6A049BDB431A40079B1A43B6
:1041F000039B1A6208E0039B5A6A049BDB431A4044
:10420000079B1A43039B5A62039B1A68059BDB4377
:104210001A400D9B1A43039B1A601EE0039B1A6809
:10422000059BDB431A400D9B1A43039B1A60099BB5
:10423000072B09D8039B1A6A049BDB431A40079B90
:104240001A43039B1A6208E0039B5A6A049BDB43F0
:104250001A40079B1A43039B5A62029B5B08029316
:10426000029B002B0FD00C9B5B000C930B9B9B00C5
:104270000B930A9B9B000A930D9B9B000D93099B3C
:10428000013309936AE70EB0704700BF00000000D9
:1042900082B020230193019B83F3118802B0704701
:1042A00082B000230193019B83F3118802B0704711
:1042B00008B5FFF7EDFF08BD00000000000000009A
:1042C00008B5FFF7EDFF08BD00000000000000008A
:1042D00008B5FFF7EDFF02F0DBF808BD00000000B5
:1042E00008B502F0EDF8FFF7EBFF08BD0000000095
:1042F00008B5FFF7EDFF08BD00000000000000005A
:1043000008B5FFF7EDFF08BD000000000000000049
:1043100000B583B00190019802F03AF803B05DF85F
:1043200004FB00BF000000000000000000000000CF
:1043300000B585B00190019BDB6E0393039B1B6965
:10434000002BFBDA039B01221A610C20FFF7E0FF30
:10435000039B1B6903F00103002BF9D11220FFF727
:10436000D7FF039B1B69002BFBDA05B05DF804FB4C
:1043700084B00190019BDB6E02930023039332E033
:10438000029A039B48335B01134400221A60029A8D
:10439000039B5B01134403F5116300221A60029A28
:1043A000039B5B01134403F608134FF0FF321A60BE
:1043B000029A039B58335B01134400221A60029A4D
:1043C000039B5B01134403F5316300221A60029AD8
:1043D000039B5B01134403F608334FF0FF321A606E
:1043E000039B01330393019B1B6F9B68039A9A42C3
:1043F000C6D9029B4FF00112C3F81C2804B07047C5
:1044000000B585B00190019BDB6E0393039B1022E6
:104410001A61039B1B6903F01003002BF9D11220D2
:10442000FFF776FF05B05DF804FB00BF0000000059
:1044300000B585B001900091019BDB6E0393009B5A
:104440009B0143F02002039B1A61039B1B6903F04D
:104450002003002BF9D11220FFF75AFF05B05DF8B9
:1044600004FB00BF0000000000000000000000008E
:1044700082B00190019B1B6F1A68019B5A6702B0C2
:10448000704700BF000000000000000000000000B6
:1044900000B585B001900091019B5B6F0393019B78
:1044A0005A6F009B1A44019B5A67019B5A6F019BEC
:1044B0001B6F5B689A4202D9034801F039FF039BE6
:1044C000184605B05DF804FBC08A00080000000033
:1044D00000B585B0039002910192019B002B02D19F
:1044E000094801F025FF029B1A68039B1A60019B93
:1044F000042B06D9019B043B0193029B04330293D6
:10450000F1E705B05DF804FBD08A00080000000068
:1045100086B003900291019200930023059300233B
:10452000049317E0049B03F00303002B02D1039BC9
:104530001B680593049A009B9A4208D2029B5A1C5E
:104540000292059AD2B21A70059B1B0A0593049B2E
:1045500001330493049A019B9A42E3D306B0704757
:1045600010B586B00190019BDB6E1B6A0593059B1D
:104570001B09C3F30A030493059B03F00F03039382
:10458000059B03F4F013B3F5C02F65D0B3F5C02F2E
:1045900006D8B3F5003F61D0B3F5802F16D060E0A8
:1045A000B3F5002F5CD0B3F5402F5AD1019BDB6EE1
:1045B00003F58050019A039B02339B0013445B6810
:1045C000196A0823049AFFF7A3FF4AE0019BDB6EF8
:1045D00003F58050019A039B02339B0013445B68F0
:1045E0009B699C68019A039B02339B0013445B68A0
:1045F0009B691A680199039B02339B000B445B681B
:104600009B695B68D31A049A2146FFF781FF019AE0
:10461000039B02339B0013445B689B699968019A72
:10462000039B02339B0013445B689B69049A0A4412
:104630009A60019A039B02339B0013445B689B6959
:104640005968019A039B02339B0013445B689B6982
:10465000049A0A445A6004E000BF02E000BF00E090
:1046600000BF06B010BD00BF000000000000000049
:1046700000B585B001900B468DF803309DF80330EE
:10468000019A02339B0013445B685B695A689DF88A
:104690000330019902339B000B445B685B691B6824
:1046A0009A4210D3019BDB6ED3F834189DF8033087
:1046B000012202FA03F3DA43019BDB6E0A40C3F8DE
:1046C0003428012375E09DF80330019A02339B00E2
:1046D00013445B685B691A689DF8033001990233E3
:1046E0009B000B445B685B695B68D31A03939DF87E
:1046F0000330019A02339B0013445B681B8A1A46FD
:10470000039B934208D99DF80330019A02339B0022
:1047100013445B681B8A0393019BDA6E9DF8033098
:104720005B01134403F618131B689BB29B00039AAA
:104730009A4201D900233CE0019BDA6E9DF80330D8
:1047400001331B03D0189DF80330019A02339B00FC
:1047500013445B685B699B68039A1946FFF7B8FED0
:104760009DF80330019A02339B0013445B685B6938
:1047700099689DF80330019A02339B0013445B68EB
:104780005B69039A0A449A609DF80330019A0233E8
:104790009B0013445B685B6959689DF80330019A7C
:1047A00002339B0013445B685B69039A0A445A60B6
:1047B00064E7184605B05DF804FB00BF0000000088
:1047C00000B587B001900B468DF80330019BDB6E7E
:1047D00005939DF80330059A5B01134403F6081313
:1047E0001B6804939DF80330059A5B01134403F69C
:1047F0000813049A1A60049B03F00103002B51D0A4
:10480000059BD3F8103803F00103002B4AD09DF824
:104810000330019A02339B0013445B685B69039386
:10482000039B1A68039BDB689A4214D2039BDA68E5
:10483000039B1B68D21A039B1A60039B00225A60D9
:10484000FFF756FD9DF803301946019800F0B0FEC1
:10485000FFF756FD26E0019B1B891AB29DF8033035
:10486000012101FA03F31BB2DB431BB213401BB25D
:104870009AB2019B1A819DF80330019A02339B0082
:1048800013445B689B68002B0CD09DF80330019AA1
:1048900002339B0013445B689B689DF8032011461C
:1048A00001989847049B03F08003002B10D0059BD0
:1048B000D3F834289DF80330012101FA03F31340A3
:1048C000002B05D09DF8033019460198FFF7D0FE64
:1048D00007B05DF804FB00BF00000000000000000E
:1048E00000B587B001900B468DF80330019BDB6E5D
:1048F00005939DF80330059A5B01134403F60833D2
:104900001B6804939DF80330059A5B01134403F67A
:104910000833049A1A60049B03F00803002B13D099
:10492000059BD3F8143803F00803002B0CD09DF836
:104930000330019A02339B0013445B685B689DF867
:104940000320114601989847049B03F00103002BB4
:1049500066D0059BD3F8143803F00103002B5FD019
:104960009DF80330019A02339B0013445B689B69F6
:1049700003939DF80330002B2BD1039B5A689DF8BD
:104980000330019902339B000B445B685B8AB2FBE6
:10499000F3F103FB01F3D31A002B1AD1039B1A681E
:1049A000039BDB689A4214D2039BDA68039B1B6863
:1049B000D21A039B1A60039B00225A60FFF798FCEF
:1049C0009DF803301946019800F052FDFFF798FC5E
:1049D00026E0019B5B891AB29DF80330012101FAA0
:1049E00003F31BB2DB431BB213401BB29AB2019B11
:1049F0005A819DF80330019A02339B0013445B688F
:104A0000DB68002B0CD09DF80330019A02339B0029
:104A100013445B68DB689DF80320114601989847B2
:104A200007B05DF804FB00BF0000000000000000BC
:104A300000B585B00190019BDB6E029300238DF8D9
:104A40000F3065E09DF80F30029A48335B01134444
:104A50001B6803F44023B3F5802F54D19DF80F3029
:104A6000029A48335B0113441B68002B4BDA9DF814
:104A70000F30029A48335B0113441A689DF80F30D7
:104A800042F09042029948335B010B441A609DF852
:104A90000F30029A48335B0113441B68002BF6DB8E
:104AA0009DF80F3019460198FFF7C2FC019B1B8946
:104AB0001AB29DF80F30012101FA03F31BB2DB4358
:104AC0001BB213401BB29AB2019B1A819DF80F30A2
:104AD000019A02339B0013445B689B68002B0CD047
:104AE0009DF80F30019A02339B0013445B689B686A
:104AF0009DF80F201146019898479DF80F301946F0
:104B00000198FFF7B5FD9DF80F3001338DF80F3098
:104B10009DF80F20019B1B6F9B689A4292D905B0AC
:104B20005DF804FB00000000000000000000000031
:104B300000B585B00190019BDB6E029300238DF8D8
:104B40000F3040E09DF80F30029A58335B01134458
:104B50001B6803F44023B3F5802F2FD19DF80F304D
:104B6000029A58335B0113441B68002B26DA019B21
:104B70005B891AB29DF80F30012101FA03F31BB2D1
:104B8000DB431BB213401BB29AB2019B5A819DF8C2
:104B90000F30019A02339B0013445B68DB68002BE3
:104BA0000CD09DF80F30019A02339B0013445B68D0
:104BB000DB689DF80F201146019898479DF80F304B
:104BC00001338DF80F309DF80F20019B1B6F9B6800
:104BD0009A42B7D905B05DF804FB00BF00000000A1
:104BE00000B587B00190019BDB6E0593059B5B6967
:104BF0000493059B9B69049A13400493059B049AB4
:104C00005A61049B03F48053002B03D00198FEF7F4
:104C100097FBE2E0049B002B19DA059BD3F8003EDA
:104C200003F00303002B07D0059BD3F8003E23F0CD
:104C30000302059BC3F8002E059BD3F8043823F02C
:104C40000102059BC3F804280198FEF7D9FB049BD9
:104C500003F40063002B02D00198FEF7B1FB049B24
:104C600003F40053002B17D0059BD3F8083803F04A
:104C70000603002B08D1059BDB6823F4705343F433
:104C80001052059BDA6007E0059BDB6823F4705344
:104C900043F4A052059BDA60049B03F00803002B49
:104CA00009D0019B5B68DB68002B04D0019B5B682B
:104CB000DB6801989847049B03F48013002B02D013
:104CC0000198FFF7B5FE049B03F40013002B02D0FC
:104CD0000198FFF72DFF049B03F01003002B02D077
:104CE0000198FFF73DFC059BD3F818380393049B0C
:104CF00003F40023002B35D0039B03F48033002BF7
:104D000003D000210198FFF7EBFD039B03F4003370
:104D1000002B03D001210198FFF7E2FD039B03F470
:104D20008023002B03D002210198FFF7D9FD039BBC
:104D300003F40023002B03D003210198FFF7D0FDDB
:104D4000039B03F48013002B03D004210198FFF789
:104D5000C7FD039B03F40013002B03D0052101982A
:104D6000FFF7BEFD049B03F48023002B35D0039B8B
:104D700003F00103002B03D000210198FFF720FD71
:104D8000039B03F00203002B03D001210198FFF7DE
:104D900017FD039B03F00403002B03D002210198AD
:104DA000FFF70EFD039B03F00803002B03D0032144
:104DB0000198FFF705FD039B03F01003002B03D0C0
:104DC00004210198FFF7FCFC039B03F02003002B58
:104DD00003D005210198FFF7F3FC07B05DF804FB51
:104DE00008B5084801F0B4FC01F082FB0648FFF763
:104DF000F7FE01F09DFB034801F0D2FC03F010FB2D
:104E000008BD00BFEC8A00088C08002000000000EC
:104E100008B5084801F09CFC01F06AFB0648FFF762
:104E2000DFFE01F085FB034801F0BAFC03F0F8FA5D
:104E300008BD00BFF88A0008040900200000000037
:104E400008B50A48FEF7ECF8084B4FF0A042DA66C6
:104E5000064B074A1A670748FEF7E2F8054B064A71
:104E6000DA66044B054A1A6708BD00BF8C080020AB
:104E7000A88A00080409002000000440B48A000841
:104E800000B585B00190019BDB6E0393019B1B78FD
:104E9000012B40F09A80019B4D4A934226D14D4B05
:104EA0005B6B4C4A43F0800353634A4B5B6D494A4A
:104EB00043F080035365474B5B6D464B5B69454A46
:104EC00043F080035361434B5B69424A23F0800304
:104ED0005361404B5B690E214320FEF781FC039B2D
:104EE0003D4ADA60039B3D4AC3F80028019B3C4AD7
:104EF000934234D1374B1B6B364A43F00053136354
:104F0000344B1B6D334A43F000531365314B1B6D1B
:104F1000304B1B692F4A43F0005313612D4B1B6923
:104F20002C4A23F0005313612A4B1B69294B1B6B3E
:104F3000284A23F080431363264B1B6D254A23F038
:104F400080431365234B1B6D0E214D20FEF748FC5B
:104F5000039B214ADA60039B204AC3F80028039B85
:104F60000022C3F8002E039BC0221A60039B4FF45B
:104F700050229A630198FFF7DBF9039B00229A60A5
:104F80000198FFF7F5F9039B0022C3F81028039B53
:104F90000022C3F81428039B0022C3F81C28019B9D
:104FA0005B68DB68002B03D1039B0E4A9A6102E029
:104FB000039B0D4A9A61039B4FF0FF325A61039B9A
:104FC0009B6843F00102039B9A6005B05DF804FB07
:104FD0008C080020003802404014004003002002EA
:104FE00004090020003C30C0083C30C00000000034
:104FF00010B584B00190019BDB6E029300210198F3
:10500000FFF716FA029B0022C3F83428029B4FF0E8
:105010000112C3F81C280023039324E0029A039B87
:1050200048335B0113444FF000621A60029A039BFD
:1050300058335B0113444FF000621A60029A039BDD
:105040005B01134403F608134FF0FF321A60029A13
:10505000039B5B01134403F608334FF0FF321A60E1
:10506000039B01330393019B1B6F9B68039A9A4236
:10507000D4D90198FFF7FCF9019B1B6F1A68029BBA
:105080005A620198FFF7BCF9029BD3F8003823F469
:10509000FE62029BC3F80028029B9B6943F44023F5
:1050A00043F01003029A9361029B0922C3F810286F
:1050B000029B0922C3F81428019B174ADA60029B5D
:1050C0004FF0C042C3F8102B402343F0805343F409
:1050D0000043029AC2F8003B029B0022C3F8102949
:1050E000402343F0805343F40043029AC2F800394E
:1050F00040239B089BB21B041C4640239B089BB289
:1051000019460198FFF7C4F9034644EA0302029BDB
:105110009A6204B010BD00BF848A0008000000003D
:1051200084B00190019BDB6E0393039BD3F800389E
:1051300023F4FE63019A92F8662012011A43039B3E
:10514000C3F8002804B07047000000000000000011
:1051500010B586B001900B468DF80330019BDB6ED5
:1051600003939DF80330019A02339B0013445B685C
:105170001B6803F00303032B00F2048101A252F821
:1051800023F000BF955100089B510008A151000871
:10519000A75100087D4B059307E07D4B059304E084
:1051A0007C4B059301E07C4B05939DF80330039AFB
:1051B0005B01134403F5316300221A609DF803304C
:1051C000019A02339B0013445B689B69002B1FD03C
:1051D0009DF80330019A02339B0013445B685B8A9D
:1051E00019469DF80330059A0A43039958335B0129
:1051F0000B441A60039BD3F81C289DF8033010332E
:10520000012101FA03F31A43039BC3F81C281DE094
:105210009DF80330039A58335B0113441A689DF8D4
:10522000033022F40042039958335B010B441A60A7
:10523000039BD3F81C289DF803301033012101FA99
:1052400003F3DB431A40039BC3F81C289DF803308B
:10525000039A5B01134403F5116300221A609DF861
:105260000330019A02339B0013445B685B69002B97
:105270005BD09DF80330019A02339B0013445B68B6
:105280001B8A9B089BB204939DF80330019A02335A
:105290009B0013445B689B8B012B0CD99DF803305A
:1052A000019A02339B0013445B689B8B1A46049B54
:1052B00002FB03F30493049B1C0404990198FFF779
:1052C000E7F802469DF80330013B2243039940333F
:1052D0009B000B445A609DF8033019460198FFF774
:1052E000A7F89DF803309B051A46059B1A439DF8C5
:1052F0000330019902339B000B445B681B8A1946FB
:105300009DF803300A43039948335B010B441A604C
:10531000039BD3F81C289DF80330012101FA03F305
:105320001A43039BC3F81C282DE09DF80330013B72
:10533000039A40339B001344184A5A609DF8033087
:1053400019460198FFF774F89DF80330039A483323
:105350005B0113441A689DF8033022F4004203995C
:1053600048335B010B441A60039BD3F81C289DF85B
:105370000330012101FA03F3DB431A40039BC3F816
:105380001C2800E000BF06B010BD00BF0080001068
:10539000008004100080081000800C10000400023F
:1053A00000B583B001900198FFF762F80198FEF70D
:1053B000DFFF03B05DF804FB000000000000000008
:1053C00084B001900B468DF80330019BDA6E9DF896
:1053D000033058335B0113441B680393039B03F4AE
:1053E0000043002B01D1002307E0039B03F40013CB
:1053F000002B01D0012300E00223184604B07047BF
:1054000084B001900B468DF80330019BDA6E9DF855
:10541000033048335B0113441B680393039B03F47D
:105420000043002B01D1002307E0039B03F400138A
:10543000002B01D0012300E00223184604B070477E
:1054400000B585B003900B4601928DF80B309DF8A6
:105450000B30039A02339B0013445B681B6A0822DB
:1054600019460198FAF74EFF05B05DF804FB00BF3E
:1054700086B001900B468DF803309DF80330019AF9
:1054800002339B0013445B689B690593059B1A6874
:10549000059BDA609DF80330002B06D1059B1B6845
:1054A000402B02D9059B40221A60059B1A689DF883
:1054B0000330019902339B000B445B685B8A134401
:1054C0005A1E9DF80330019902339B000B445B6820
:1054D0005B8AB2FBF3F304939DF80330019A023325
:1054E0009B0013445B685B8A1A46049B03FB02F330
:1054F000033323F003030393049BDA04039B1A434F
:10550000019BD96E9DF8033042F0C0425B010B4411
:1055100003F531631A609DF80330019A02339B0052
:1055200013445B681B6803F00303012B2CD1019B20
:10553000DB6ED3F8083803F48073002B12D0019B84
:10554000DA6E9DF8033058335B0113441A68019BEF
:10555000D96E9DF8033042F0805258335B010B4402
:105560001A6011E0019BDA6E9DF8033058335B013D
:1055700013441A68019BD96E9DF8033042F0005223
:1055800058335B010B441A60019BDA6E9DF80330BF
:1055900058335B0113441A68019BD96E9DF80330A0
:1055A00042F0044258335B010B441A6006B0704766
:1055B00084B001900B468DF803309DF80330019ABA
:1055C00002339B0013445B685B690393039B1A6877
:1055D000039BDA60039B1B68002B0BD1019BDA6EE7
:1055E0009DF803305B01134403F511634FF400226F
:1055F0001A6031E09DF80330002B06D1039B1B6835
:10560000402B02D9039B40221A60039B1A689DF825
:105610000330019902339B000B445B681B8A1344DF
:105620005A1E9DF80330019902339B000B445B68BE
:105630001B8AB2FBF3F30293029BDA04039B1B6801
:105640001A43019BD96E9DF8033042F000525B0172
:105650000B4403F511631A609DF80330019A02337D
:105660009B0013445B681B6803F00303012B2CD1E0
:10567000019BDB6ED3F8083803F48073002B12D043
:10568000019BDA6E9DF8033048335B0113441A68BE
:10569000019BD96E9DF8033042F0805248335B0184
:1056A0000B441A6011E0019BDA6E9DF80330483319
:1056B0005B0113441A68019BD96E9DF8033042F0D8
:1056C000005248335B010B441A60019BDA6E9DF86F
:1056D000033048335B0113441A68019BD96E9DF86F
:1056E000033042F0044248335B010B441A60019BD3
:1056F000DB6ED3F834189DF8033001229A40019BE9
:10570000DB6E0A43C3F8342804B070470000000081
:1057100082B001900B468DF80330019BDA6E9DF844
:10572000033058335B0113441A68019BD96E9DF80E
:10573000033042F4001258335B010B441A6002B08C
:10574000704700BF000000000000000000000000E3
:1057500082B001900B468DF80330019BDA6E9DF804
:10576000033048335B0113441A68019BD96E9DF8DE
:10577000033042F4001248335B010B441A6002B05C
:10578000704700BF000000000000000000000000A3
:1057900082B001900B468DF80330019BDA6E9DF8C4
:1057A000033058335B0113441A68019BD96E9DF88E
:1057B000033022F4001258335B010B441A6002B02C
:1057C000704700BF00000000000000000000000063
:1057D00082B001900B468DF80330019BDA6E9DF884
:1057E000033048335B0113441A68019BD96E9DF85E
:1057F000033022F4001248335B010B441A6002B0FC
:10580000704700BF00000000000000000000000022
:1058100008B50948FDF74CF9074B084ADA61064B11
:1058200000221A62044B00225A62034B044A9A6215
:10583000014B044ADA6208BD94090020003001409F
:1058400016000106460001060000000000000000EE
:1058500082B020230193019B83F3118802B070472B
:1058600082B000230193019B83F3118802B070473B
:1058700008B5FFF7EDFF08BD0000000000000000C4
:1058800008B5FFF7EDFF08BD0000000000000000B4
:1058900008B5FFF7EDFF00F0FBFD08BD00000000BC
:1058A00008B500F00DFEFFF7EBFF08BD000000009B
:1058B00008B5FFF7EDFF08BD000000000000000084
:1058C00008B5FFF7EDFF08BD000000000000000074
:1058D00008B500F03DFD08BD00000000000000001C
:1058E00008B50F4800F034FF00F002FE4FF080438F
:1058F0001B6903F00203002B09D04FF08043002204
:105900001A61FFF7D5FFFFF7E3FFFFF7D9FF00F0BC
:105910000FFE034800F044FF02F082FD08BD00BF07
:10592000048B0008000000000000000000000000E0
:1059300008B51D4B1B6C1C4A43F0010313641A4B42
:105940001B6E194A43F001031366174B1B6E174B6E
:105950009B68164A43F0010393604FF0804342F284
:10596000CF029A624FF080434FF0FF32DA624FF07D
:10597000804300229A614FF0804300225A634FF027
:1059800080430022DA604FF0804300225A604FF0DB
:10599000804301225A614FF0804301221A6008219E
:1059A0001C20FDF71DFF08BD00380240002004E068
:1059B00008B5084800F0CCFE00F09AFD064800F05B
:1059C00037F800F0B5FD034800F0EAFE02F028FDCC
:1059D00008BD00BF108B0008C409002000000000B3
:1059E00008B5084800F0B4FE00F082FD064800F05B
:1059F0001FF800F09DFD034800F0D2FE02F010FDFC
:105A000008BD00BF1C8B0008C40900200000000076
:105A100008B50548FCF7BCFA034B04221A74024B84
:105A2000024A9A6108BD00BFC4090020000001407D
:105A300000B585B00190019B9B691B690393019B95
:105A40009B69DB68DBB2039A13400393019B9B695C
:105A5000039AD2431A61039B03F00203002B09D07F
:105A6000019B5B681B69002B04D0019B5B681B6971
:105A700001989847039B03F00403002B09D0019B76
:105A80005B689B69002B04D0019B5B689B69019854
:105A90009847039B03F00803002B09D0019B5B6828
:105AA0001B6A002B04D0019B5B681B6A0198984716
:105AB000039B03F01003002B09D0019B5B689B6ADA
:105AC000002B04D0019B5B689B6A01989847039B5D
:105AD00003F00103002B09D0019B5B689B68002B3E
